:020000040800F2
:1000000080110020950800085D050008810800089F
:10001000810800088108000881080008000000002D
:100020000000000000000000000000009909000826
:100030008108000800000000650900087117000829
:10004000190B0008190B0008190B0008190B000800
:10005000190B0008190B0008190B0008190B0008F0
:10006000190B0008190B0008190B0008190B0008E0
:10007000190B0008190B0008190B0008190B0008D0
:10008000190B0008190B0008190B0008190B0008C0
:10009000190B0008190B0008190B0008190B0008B0
:1000A000190B0008190B0008190B0008190B0008A0
:1000B000190B0008190B0008190B0008190B000890
:1000C000190B0008190B0008190B0008190B000880
:1000D000190B0008190B0008190B0008190B000870
:1000E000190B0008190B0008190B0008190B000860
:1000F000190B0008190B0008190B0008190B000850
:10010000190B0008190B0008190B0008190B00083F
:10011000190B0008190B0008190B0008190B00082F
:10012000190B0008190B0008190B0008190B00081F
:10013000190B0008190B0008190B0008190B00080F
:10014000190B0008190B0008190B0008190B0008FF
:10015000190B0008190B0008190B0008190B0008EF
:10016000190B0008190B0008190B0008190B0008DF
:10017000190B0008190B0008190B0008190B0008CF
:08018000190B0008190B00081F
:1001880053B94AB9002908BF00281CBF4FF0FF31F6
:100198004FF0FF3000F00CB8ADF1080C6DE904CE5B
:1001A80000F008F8DDF804E0DDE9022304B0704748
:1001B800704700BF2DE9F04786468C460846089EE2
:1001C800154674461946002B40F0C2808542B2FAA3
:1001D80082F245D94AB1C2F1200300FA02FC2EFA94
:1001E80003F3954043EA0C0C94404FEA154EA8B22D
:1001F800BCFBFEF8230C0EFB18CC08FB00F943EA05
:100208000C43994528D9EB1808F1FF3704D29945D2
:1002180002D9A8F102072B44A3EB0903A4B2B3FB4C
:10022800FEFC0EFB1C330CFB00F044EA0344A04226
:1002380014D92C190CF1FF3304D2A04202D9ACF125
:1002480002032C44241A43EA07401EB1D440002379
:1002580034607360BDE8F0874746DDE76346F1E741
:1002680092BB431B01214FEA154EAFB2B3FBFEFC14
:10027800200C0EFB1C330CFB07F840EA034398459F
:1002880062D9EB180CF1FF3004D2984502D9ACF1D1
:1002980002002B44A3EB0803A4B2B3FBFEFC0EFB45
:1002A8001C330CFB07F744EA0344A7424ED92C1928
:1002B8000CF1FF3304D2A74202D9ACF102032C445B
:1002C800E41B43EA0040C0E7C2F1200320FA03F12F
:1002D800954090402EFA03F303434FEA154EAFB210
:1002E800B1FBFEFC0EFB1C10190C0CFB07F841EAD5
:1002F8000041884504FA02F422D969180CF1FF304C
:1003080004D2884502D9ACF102002944A1EB0801C6
:100318009BB2B1FBFEFC0EFB1C110CFB07F743EA7A
:1003280001439F420ED9EB180CF1FF3104D29F42D2
:1003380002D9ACF102012B44DB1B41EA004192E7F0
:100348006046E3E76146F7E76046A3E76346B7E739
:10035800834206D916B9002108467BE7C6E900E0C2
:10036800F9E7B3FA83F78FB9834201D3724508D806
:10037800BEEB020460EB030301209C461EB900217A
:1003880068E73846FAE7C6E9004CF8E7C7F1200CF9
:10039800BB4022FA0CF41C432EFA0CF120FA0CF3A1
:1003A800B84001434FEA14490EFA07F5B3FBF9F8D0
:1003B8001FFA84FE09FB18300B0C08FB0EFA43EAFF
:1003C80000439A4502FA07F240D9E31808F1FF30D2
:1003D80004D29A4502D9A8F102002344A3EB0A03E8
:1003E80089B2B3FBF9F809FB183308FB0EFE41EAA2
:1003F80003418E452CD9611808F1FF3304D28E458C
:1004080002D9A8F10203214443EA0040A0FB029864
:10041800A1EB0E014145CE46434602D306D14D45D8
:1004280004D2B9EB020E68EB04030138002EA6D003
:10043800B5EB0E0261EB030101FA0CFC22FA07F39B
:100448004CEA0303F940C6E9003198E74046C5E79E
:100458004346D9E708B5094802F04EFF40B10848BD
:1004680002F0C0FB002142F2107001F0DDFEF9E756
:10047800044802F0B7FB4FF0FF3008BD3C370008D6
:10048800523C00083A3C0008014B1B68184700BF63
:1004980000000020014B1860704700BF00000020DA
:1004A80030B585B004460D4610220021684603F099
:1004B8006EF802238DF802302A46044B0193214638
:1004C800684602F0C7F805B030BD00BF91040008C7
:1004D80080B505460E461746984601F0C3FE03460A
:1004E80003F05EF8DFF81890044649F800304246F9
:1004F80030463946A84754F8090000F0DDF900BF36
:1005080008000000034A536823F0020353600020E8
:10051800704700BF002004E0084B1A6842F480725C
:100528001A601A6842F400721A601A6842F480620B
:100538001A60034B034A1A60704700BF003C024030
:10054800380000200024F400014B036000207047AD
:10055800FC39000808B5034B1B689847BDE80840FC
:1005680000F026B80400002030BFFFF7FDBF00BF31
:100578002DE9F0410B4EDFF8308006EB0807CC1B65
:10058800054632460949204602F0F3FFA0194246C3
:100598000021083C02F0FBFF2C6707F10800BDE8CA
:1005A800F08100BF0000000004000000F4390008DA
:1005B800074A936893F90E10002907DB52699342A2
:1005C8001FBF044A536843F080535360704700BF0D
:1005D8007C03002000ED00E070B5264B15469A6AB2
:1005E80012F0100F9A6A14BF1124102412F0080F89
:1005F8009A6A18BF1224920706460AD5586B9A6A57
:10060800140634D519B19A6A22F080029A6213242A
:1006180001E06FF01500174B9A6A12F0010F9A6A01
:1006280018BF142412F0200F9A6A18BF1524D20696
:1006380002D49B6A9B070AD50E4B5B68190506D541
:10064800314600F01BFA10B180F309880224094BE7
:100658009A6A920642BF5A6A22F400525A629A6A09
:1006680042F0FF029A6200232B70204670BD6FF0A3
:100678001500CCE700ED00E0134B9A6A12F0007FFA
:100688009A6A14BF1E201D2012F0807F9A6A18BF34
:100698001F2012F4002F9A6A18BF212012F4802F0D
:1006A8009A6A18BF222012F4003F9A6A18BF2320C2
:1006B80012F4803F9A6A6FEA02426FEA12429A6223
:1006C80018BF2420704700BF00ED00E010B5194B9B
:1006D8000246986A9C6A10F4805F14BF172016209F
:1006E80014F4006F9C6A18BF1820A40509D5986BEC
:1006F800986A000404D51AB19A6A22F400429A62F0
:1007080019200C4B9A6A12F4806F9A6A18BF1A2043
:10071800D2050CD49B6A13F4005F18BF1C20054A4D
:10072800936A43F47F43936200230B7010BD1B2030
:10073800F5E700BF00ED00E0F0B5484B5B688BB013
:100748000446C3F30803002585F31188BFF36F8FB0
:1007580002F07F40B0F17F4F11D102F00C00082861
:100768000DD010074CBF0C4601250022033B8DF825
:100778000720032B05D8DFE803F0246367602C46C5
:10078800F3E700239DF80720CAB902AE04F1200759
:1007980020686168324603C20834BC421646F7D165
:1007A800099A002D54D0C2F3080121B96FEA5222E8
:1007B8006FEA4222099202A9184602F021FA0BB008
:1007C800F0BD264BDA6A9107DBD4DA6A002AD8DB57
:1007D800DA6A5200D5D55A69A16942F480725A6121
:1007E800BFF34F8FBFF36F8F5A6931F8021C22F4A1
:1007F80080725A61BFF34F8FBFF36F8F4DF602724D
:1008080091420AD09A6AD2B24AB10DF10702012187
:100818002046FFF7E1FE0346B4E72368B2E79A6A89
:1008280012F47F4F05D00DF107010120FFF74EFFAD
:10083800F1E79B6AB3F5803FA3D3FFF71DFFEAE713
:100848000DF107020021E3E70DF107010020EDE7B4
:1008580022F4FF7222F00102ACE700BF00ED00E0D5
:10086800044B5A6942F010025A615A6922F0080290
:100878005A61704700ED00E0EFF30880EFF309815B
:1008880001B57246FFF758FF01BD00BF102080F385
:10089800118808484FF40461401880F30988EFF381
:1008A80014800221084380F31488BFF36F8F00F08F
:1008B800A5F80000C0030020084B9B6883420BD1B9
:1008C800EFF3058343B1064B5A6842F080525A60F1
:1008D8005A6A22F400425A6202F0ADBD7C0300203D
:1008E80000ED00E0094A93686FF00A01996708492A
:1008F80058674B6843F080534B60002383F311889B
:10090800BFF36F8F9368986F704700BF7C03002018
:1009180000ED00E010B50446EFF31183102383F3D4
:100928001288BFF36F8F0A4B58699860094B4FF0D4
:1009380000625A60084B026F1A600022436F4267D8
:1009480083F31188BFF36F8F00F000F9204610BDC4
:100958007C03002000ED00E0200200200B498A689B
:100968004FF030001044EFF3098C80E8F01F744614
:100978007046FFF7CFFFA64604498A6802F13000A7
:1009880090E8F01F8CF30988704700007C03002072
:100998001EF0040F0CBFEFF30880EFF309808169A4
:1009A80011F8021C0229FFD001B502F02FF901BD90
:1009B80040B2002807DB044A4109012300F01F0068
:1009C800834042F82130704700E100E040B200283F
:1009D800A8BF00F1604001F10101B8BF064B4FEA22
:1009E8000111ACBF00F5614000F00F00C9B2B4BFFF
:1009F800195480F80013704714ED00E00F4A08B549
:100A08000F4B22F07F029A60BFF34F8FBFF36F8FB7
:100A1800D3F8882022F47002C3F88820EFF31483F7
:100A280023F0040383F31488BFF36F8F01F096F863
:100A380001F0A4FC00F060F801F0DEF80000000806
:100A480000ED00E042F8203C009B42F81C3C0A49BB
:100A5800019B42F8183C029B42F8143C21F001012A
:100A68004FF0807342F8043C42F8081C0023203AF7
:100A780002654367704700BFD9040008094A034666
:100A8800906870B113F1160F006E05D0A0F1400206
:100A98009A4205D8834203D2814228BF002070477A
:100AA800002070477C03002008B515460B4A0C4B04
:100AB8009060026F1A600E4600F048F82C4686F3E4
:100AC80009884FF00000074B984720464FF0000177
:100AD8004FF000024FF00003034C20477C03002036
:100AE80020020020252C0008D9040008014B102200
:100AF8001A61704700ED00E0044800231021C21875
:100B08000133522B82F80013F9D1704700E100E05D
:100B180008B5EFF30583064A103B02EBC30152F810
:100B2800330049688847BDE80840FFF741BD00BF6A
:100B380064370008024B034A0348012100F076B8E5
:100B48000000022000000020FC390008026E054B5E
:100B5800403A1A60044A4021C3E9011218460121AB
:100B680000F06EB82402002000000B15084AC2F8F5
:100B780098000B6823F01F03034343F01003C2F8E7
:100B88009C308B6843F00103C2F8A030704700BF67
:100B980000ED00E02DE9F043DFF8608085B00E46F7
:100BA8001F4604464FF00009B14523DA6068D8B102
:100BB8003FB1411E08421BD11F2819D92368194289
:100BC80016D12368019302F03DF8A3680343039309
:100BD800D8F89050C5F30725D0B2013DA84207D8F0
:100BE80001A9FFF7C3FF421C09F101090C34DBE737
:100BF8006FF01502104605B0BDE8F08300ED00E087
:100C0800044B0522C3F89420BFF34F8FBFF36F8FB7
:100C1800704700BF00ED00E0BFF35F8F024B00227A
:100C2800C3F89420704700BF00ED00E010B5034CF6
:100C380001232278FFF7AEFF207010BDAC0300201F
:100C480008B50B4A00231278FFF7A4FF10F1160F1E
:100C580007D0084A0021D2F89030C3F307239842FE
:100C680000DB08BDC2F89800C2F8A0100130F2E716
:100C7800AC03002000ED00E02DE9F043534B544C49
:100C8800D3F890302568C3F307239D4285B000F25E
:100C98009A80FFF7C1FF00200C2685421AD14D4CDF
:100CA8004D4F25706846FFF74FFCDFF82081DFF8CD
:100CB8002C9106460025AE4213D1237843490020E3
:100CC800D1F89020C2F30722934276DBFFF798FF12
:100CD800002042E0616806FB0011FFF747FF013082
:100CE800DBE7009800EB05114FEA051CCB683B4099
:100CF800B3F5000F48D00AD8B3F5001F30D0B3F5CC
:100D0800800F36D0B3F5801F10D00135D3E7B3F18B
:100D1800807F42D0B3F1007FF7D150F80C3088685B
:100D28004A6801F08FFF40F4802009E050F80C3049
:100D380088684A6801F086FF40F0885040F4302007
:100D4800CDE901230390D8F890302078C3F3072326
:100D5800013B98422AD96FF0150005B0BDE8F08331
:100D680050F80C3088684A6801F06CFF40EA0900C6
:100D7800E6E750F80C3088684A6801F063FF40F0F5
:100D8800E06040F40030DBE750F80C3088684A68CF
:100D980001F058FF40F08270D2E750F80C308868B4
:100DA8004A6801F04FFF40F08870C9E701A9FFF7D2
:100DB800DDFE237801332370A7E7C1F89830C1F826
:100DC800A00001337CE74FF0FF30C6E700ED00E0FC
:100DD800083A0008AC0300200000F0FF00000811EA
:100DE80008B5024B1B689847002008BD3002002058
:100DF800034B044A1860937843F0020393707047DA
:100E0800300200200800002008B50649064821F0F5
:100E18000701C1F1005202F5003201F0A4FE0020E2
:100E280008BD00BFC7110020340200202DE9F041A1
:100E3800104E114F054600244FF001082B787169B8
:100E48001A19D2B208FA02F201EA02008A4309D159
:100E580053FA84F3706157F833201AB107EBC303D0
:100E6800596890476A780134E3B29A42E6D2BDE8FD
:100E7800F08100BF003C014040020020044B1844B0
:100E880000230133994200F8012BFADC704700BFB8
:100E98004400002007B5062201210020FFF7EEFFDD
:100EA800002211460620FFF791FD0121084607227E
:100EB800FFF7E4FF002211460720FFF787FD08220D
:100EC80001210220FFF7DAFF002211460820FFF770
:100ED8007DFD092201210320FFF7D0FF00221146E2
:100EE8000920FFF773FD0A2201210420FFF7C6FF3E
:100EF800002211460A20FFF769FD0521084617223E
:100F0800FFF7BCFF002211461720FFF75FFD2822DC
:100F180006210A20FFF7B2FF002211462820FFF71A
:100F280055FD074A92E803006B4683E8030005482D
:100F3800826819461268904703B05DF804FB00BF49
:100F4800F43900084C360008034660B1B0FA80F264
:100F5800C2F11F02D2B205498856054A11680B43EF
:100F68001360FFF725BDFF22F5E700BF440000200E
:100F7800003C0140024A136823EA000313607047EB
:100F8800003C0140032921D8DFE801F0020C1019C8
:100F98000F4B9A6822EA00029A60DA6822EA000295
:100FA800DA6070470A4B9A680243F5E7084BDA683B
:100FB8000243DA609A6822EA00029A607047044B9A
:100FC8009A6802439A60DA681043D860704700BF95
:100FD800003C014030B5B0B1B0FA80F3C3F11F0353
:100FE800DBB20B4850F833408C4204D100EBC30508
:100FF8006D68954205D044B940F8331000EBC30042
:101008004260002030BDFF23EBE76FF00F00F9E7E7
:101018004002002060B1B0FA80F3C3F11F03DBB2D5
:10102800044A002142F8331002EBC30251607047B2
:10103800FF23F5E74002002000F00302043292008B
:101048000F23934043EA9000C3B20233054A52F893
:101058002320030C02EA104093FAA3F3B3FA83F3B4
:10106800D84070470038014010B51D4B18680B6810
:10107800302B14460BD00DD85A1E042A11D8023B27
:10108800032B04D8DFE803F00228161E0020206096
:10109800002010BD402B0BD006D8342BF7D0382BAE
:1010A800F5D06FF08500F4E7442B09D0A82BF7E7BB
:1010B8008008ECE700F0A4F84FF4A873C008584380
:1010C8004008E4E700F09CF84FF4A873C0085843C0
:1010D8000723B0FBF3F0DAE74FF4FA40D7E700BF95
:1010E80038000020F8B5424F424C00F09FF83846CF
:1010F80001F054FE00F002FCA3683F4AC3F3031357
:101108001578D35C47FA05F520FA03F6AE4202D209
:10111800284600F021FC236823F4802323602368F9
:1011280043F480332360334B1A689203FCD55A6F1B
:1011380042F001025A675A6F9407FCD59A6802F088
:101148000C02082A17D11A68900707D41A6842F0C7
:1011580001021A60274A13689907FCD5254B9A683B
:1011680022F003029A609A6812F00C0FFBD19A6879
:1011780022F0F0029A601F4C236823F080732360EA
:10118800636823F440336360636823F0706343F05B
:10119800E063636000F038F8236843F080732360ED
:1011A80023689B01FCD5A36823F0F003A360A36820
:1011B80023F0030343F00203A3600E4CA36803F07B
:1011C8000C03082BFAD1AE4202D3284600F0C4FB28
:1011D8000A4B1F60A36823F4E05343F4A053A360B1
:1011E800A36823F4604343F40043A3600020F8BDE0
:1011F800007A030A00380240603D000838000020E9
:101208000048704700127A00054B06495A68114099
:10121800054A0A435A605A6822F440325A607047B5
:10122800003802400080BFFF08544000064B1A6C8B
:1012380042F080521A641B6C82B003F08053019311
:10124800019B02B0704700BF0038024008B507484C
:1012580002F052F838B10648FFF7CAFD0448FFF714
:1012680019F9002008BD6FF01200FBE73C370008B1
:101278007D1200080A2838B5074D044604D1AB682A
:101288000D215B6828469847AB6803485B68E1B264
:101298009847204638BD00BF3C3700082DE9F84381
:1012A800D0F80480D0F81090D8F8080017460D46FA
:1012B8001E4601F0DCFCB7F5001F044616D128468F
:1012C800D8F80840FFF7B8FE84420CD1294601F04F
:1012D800CEFC0446FFF74EFE2046FFF79BFE00219A
:1012E8002046FFF74FFE0020BDE8F883B7F5800FD2
:1012F80020D0B6F1806F19D0B6F1C06F18D0B6F112
:10130800007F1AD1022610494A462046FFF762FE9E
:10131800B0B9D8F80810284601F0ACFC2046314690
:10132800FFF730FE2046FFF70FFEDCE70126EAE76D
:101338000326E8E76FF08500D6E76FF01500D3E7DE
:101348006FF00F00D0E700BF6530000838B50369BB
:1013580004465860084D284601F0CEFF40B1616848
:10136800AB680C311B682846984700EAE07038BD26
:101378006FF01200FBE700BF4C3600082DE9F0477C
:101388001E4F044600EBC1060025B44201D10020DF
:1013980014E02068C30600F01F0911D4656845F001
:1013A8002005C0F3481AC0F344200F2823D857F863
:1013B8002080B8F1000F0DD16FF01200BDE8F08762
:1013C800B9F1100F04D0B9F1110FEAD16568E8E757
:1013D8003025E6E7404601F08FFF0028ECD04B4669
:1013E8002A460AF00F01404601F04EFE002804F19B
:1013F8000804CADAE2E76FF01500DFE71C3B0008D3
:10140800F8B503690C465E6823794168012B34D02E
:101418009A1E55425541AD026279022A9CBF354F4A
:1014280037F812C0A27988BF4FF4005C042A27D08D
:10143800003B18BF01231B03E279012A0A680CBF8D
:101448004FF440770027A642D1681CD121F4B0514F
:1014580029430B43D360136923F4405343EA0C0335
:10146800136143681A68536923F440733B4353611B
:101478003168BDE8F84001F0A2BE4FF4C065CBE783
:101488004FF48053D8E701F4C0618D421FBFD16883
:1014980021F4C0612943D160426811680A6902F4E5
:1014A800405294451FBF0A6922F4405242EA0C0296
:1014B8000A6142681168CA6802F4805293421FBFE9
:1014C800CA6822F480521343CB6043681A68536990
:1014D80003F440739F421FBF536923F440733B4397
:1014E800536121683368994203D001F068FE23688C
:1014F8003360F8BD343C00082DE9F04143681D68AD
:101508000369D3F804800B790C46012B4979A67935
:1015180037D1022950D9042E4BD04FF480574FF4BD
:10152800C06203238B4244D1002F7DD0002A14BF10
:1015380003220422B2423CD1E37983B1012B38D192
:101548003C4B9D420BD0A3F54C439D4207D003F57D
:1015580080639D4203D003F54C439D4229D1EB683B
:1015680023F40053EB602146FFF74AFFEB6843F48E
:101578000053EB6094E8030088E803000020BDE80E
:10158800F081022B08D1022921D9042E11D04FF461
:1015980080624FF48057C4E702290A461FD9042EF7
:1015A80004D133B94FF480571A46BAE763BB03290D
:1015B800C0D06FF08500E2E71F4A042E32F811C050
:1015C800F7D04FF4C062033B012B10D8F1E71A4A59
:1015D800042E32F811C0ECD04FF48062F3E7164ABB
:1015E800042E32F811C016D1002BE2D11A464FF45E
:1015F8008057BCF5805F13D0BCF5405F12D0BCF1BA
:10160800000F8ED101238DE7033B012BD1D9002296
:10161800BFE70022D7E7002BFBD11A461F46E8E7B1
:1016280000237FE702237DE7002A14BF022203225A
:1016380080E700BF00100140343C0008F7B5066998
:10164800446805462648306001F056FE18B96FF028
:10165800120003B0F0BD3068E16883681B689847E2
:101668000028F6DB206A01AA002101F025FD0028E8
:10167800EFDB019B002219791868FFF77FFE00282D
:10168800E7DB6E682B6934685F68E36823F400530E
:10169800E360706801F030FE0028D8D0D6E9010177
:1016A8008368DB6803B1984704F10C0353E8003FF3
:1016B80043F00C0304F10C0141E80032002AF3D195
:1016C80039462846FFF79CFE337D1BB1636943F01A
:1016D80008036361E36843F40053E3600020B8E75C
:1016E8004C36000810B54FF0E0230F499C691A6981
:1016F80008689B690D4902F4803234B993B90346EE
:101708004AB90A681044C01A10BD002B08BF034626
:101718000AB9A342F5D90A6802440A604FF0E022E8
:101728001269EEE70446F3E778030020740300200B
:101738000A4B102283F82320094B44F2A0121A60A6
:10174800084B002018604FF0E02344F29F125A61C2
:1017580098611A6942F007021A61704700ED00E0CB
:101768007803002074030020684620F007018D46A6
:1017780019B5FFF7B7FF114B1149D3E900420868C3
:10178800001942F10002C3E900020E4A00230B606F
:10179800D2E9004144F2A013001BB0FBF3F043432D
:1017A8001B1941F10001C2E9003100F0CDFEFEF73E
:1017B800FFFEBDE819408546704700BF780000204D
:1017C80074030020700000202DE9F041DFF8DC8070
:1017D80099B1421C0BD14FF0E022136923F00103A9
:1017E80013614FF07F43C8F80030BDE8F081D8F8A6
:1017F8000060012807DC00270BE0431CD8F80060D4
:10180800F7D140F2E53040F2E6339842A8BF1846D7
:10181800471EEFF31185102383F31288BFF36F8FF0
:10182800FFF760FF224C4FF0E0239969D4E90023C9
:10183800801843F10003C4E900031E4B00221A601C
:101848001D4B1A68831A2ED444F2A01C0CFB0733D4
:1018580003F583431F33B3FBFCF7131A0CFB073361
:1018680040F21A42934238BF1346144A934228BFA3
:1018780013464FF0E022C8F80030013B90695361ED
:10188800002393618142A1EB0003D4E9001238BF21
:101898009B195B1842F10002C4E9003285F31188F4
:1018A800BFF36F8FA1E740F21A43E2E77803002005
:1018B8007800002074030020700000202094FF00AE
:1018C80038B5EFF31185102383F31288BFF36F8FB8
:1018D800084B1C68084B1B68E41AFFF703FF85F3E5
:1018E8001188BFF36F8F44F2A0132044B0FBF3F0CC
:1018F80038BD00BF780000207000002008B51349EB
:101908008B6803F00C03042B1CD0082B1CD14A68ED
:101918004B68496813F4800314BF0D480D48C1F3A0
:10192800881118BF002302F03F02A1FB0001FEF757
:1019380027FC064B5B68C3F3014301335B00B0FB34
:10194800F3F008BD0248FCE70248FAE70038024015
:1019580000127A000024F40000285ED0304A136890
:1019680013F4804338D02F4B984215D913685B0481
:1019780049D505232C490A6822F007021A430A6050
:101988000A6802F0070293421CBF0A6802F00702C5
:10199800981A18BF01207047244B984204D913683D
:1019A800580436D50423E5E7214B984204D9136837
:1019B800590430D50323DDE71E4B984207D81E4B48
:1019C800984213681DD95A041FD50123D2E713681A
:1019D8005B041CD50223CDE7126812F48042C9D1FA
:1019E8001249884215D81249884214D811498842A8
:1019F800F0D811498842BDD9012A134638BF0123BE
:101A0800B8E70023B6E70522F6E70122F4E7022249
:101A1800F2E70422F0E70322EEE70120704700BF57
:101A28000070004080D1F008003C0240000E2707FB
:101A3800804A5D050087930380C3C90138B5EFF379
:101A48001185102383F31288BFF36F8F064B9C68B0
:101A580001F065FC85F31188BFF36F8F2046BDE860
:101A68003840FEF729BF00BF7C03002038B5094B7A
:101A780053F82040013053F82050A54200D838BD13
:101A8800636823B1204601F04DFC0834F5E723686C
:101A98009847FAE71C3C000870B52B4B2B4C2C4D93
:101AA800012286B003201A70FFF7E0FF00F0CCFD9A
:101AB80001F054FC0420FFF7D9FF2646AE4204F19A
:101AC800300410D300F0D6FA204C224EAC4226D374
:101AD80000F0E4FAFEF7BEFC1F4A137B23F0010373
:101AE800137306B070BD54F80C3C059354F8103CC1
:101AF800049354F8143C039354F8183C029354F894
:101B08001C3C019354F8203C009354E90A2354E9FF
:101B18000C0100F0DFF854F8303C5E65CDE7D4E9FD
:101B28000A23B3F1FF3F08BFB2F1FF3F05D052EAE5
:101B38000301206803D101F01DFC3034C6E73146AB
:101B4800183000F087FCF8E7AD030020F4390008EE
:101B5800F439000837340008000100200648074A15
:101B680008B5121A002101F0F5FB0548054A0021C5
:101B7800121A01F0EFFB08BD70000020B00300202E
:101B8800000000100000001070B5002386B001228C
:101B9800CDE90423134E144D01930F22CDE90232EF
:101BA8001249142303FB005506EBC01604464FF4F4
:101BB800C07000FB04110E4B00954FF4A072304624
:101BC80000F088F8737B0B4AEE6023F0040373730C
:101BD8004FF4046304FB033313442C746B6006B0A6
:101BE80070BD00BF800000207C030020000C002096
:101BF80067330008C0030020BFB50020FFF736FF99
:101C08002C4B83F308882C4D2C4E6B692C4F43F4D6
:101C180000736B610024F02385F82230EC772C7672
:101C28006C76AC7685F820406B6A43F4E0236B62EF
:101C3800FEF716FEFEF75AFF4FF0FF33AB62EB627A
:101C4800FFF71AF8FEF776FF1E4BB36040F2011259
:101C58009A81C3E91844DC6601F04DFBFEF75CFC91
:101C68000120FFF703FF0220174DFFF7FFFE00F0EA
:101C780049FA164B75610593012315490094CDE97E
:101C880003434FF480623B46CDE90144284600F007
:101C980021F86A7B064622F0040228466A7301F09E
:101CA8007DFB2046FFF770FF3A4631462846FEF78F
:101CB800FBFE00BF000C002000ED00E07C030020CC
:101CC800A11A00088001002000010020703D0008D2
:101CD800800D00202DE9F043073285B022F007027D
:101CE8000E461F461099017300F158037F32C0E970
:101CF80016330446002322F03F0204218360417317
:101D08003F2A0F98A073C4E90633E37306F140092C
:101D1800A2F1400805D883F31188BFF36F8F0846F6
:101D280002DFB51829462046FEF722FC07300E9B35
:101D380020F00700A066C4E9189802930D9B019350
:101D48002D1A0C9B00932A463B4631462046FEF747
:101D580079FE00236365044B9B6803B1DB6EE36681
:101D6800284605B0BDE8F0837C03002038B590F91B
:101D78000D20437B002A014604DA03F07F034373F6
:101D880001F0FAFA0D4D2A46AB6852F8184F944202
:101D980000D004B9EC688B4207D05A7BD20604D134
:101DA800A26912B9DA897F2A05D8A34202D020464F
:101DB80000F08CFA23466B6138BD00BF7C0300201D
:101DC80070B590F90D30427B002B30DBD1062ED157
:101DD800836963BB1C4C62F07F024273224652F84F
:101DE800181F914218BF0B46E16923B9C0E90021C9
:101DF8000860E0610CE090F90E5093F90E60B5426E
:101E080016D0AE4214DD5968C0E900310860586048
:101E1800A569954200D005B9E568A3685A7BD20642
:101E28000AD1AA6942B9DA897F2A05D9636170BDE6
:101E38009942DBD01B68D8E7AB4202D0284600F0B5
:101E480045FA6561F3E700BF7C0300202DE9F843FC
:101E5800002A427B0CBF4FF010094FF0080919EA1D
:101E6800020F04460F4621D149EA0203D2092AD1BA
:101E78004373B9F1080F2CD04FF00008344E3346A5
:101E880053F8185F9D4200D005B9F568B368AB42B6
:101E980002D0284600F01AFAB9F1100F756144D142
:101EA800BFF35F8F637B23F060036373284B9B68EA
:101EB800A34247D1EFF30583002B43D13846BDE851
:101EC800F843FEF70FBD03F07F03437301F054FAA4
:101ED800CFE7A36813B1204601F056FA04F11800C1
:101EE80001F0CBFAA56D04F15806AE4211D04FF0BF
:101EF800000875B1284601F047FA05F1180001F00D
:101F0800BCFAC5F878802846FFF75AFFA56DAE429F
:101F1800EFD10F4B9B689C42AED1EFF30588B8F127
:101F2800000818BF4FF00108A8E7B8F1000FB7D0B4
:101F3800084BB36040F201129A810022C3E91822CB
:101F4800DA66ADE787F31188BFF36F8FBDE8F883D2
:101F58007C0300208001002070B590F90D20437BA0
:101F6800002A014604DA03F07F03437301F004FA00
:101F78004B7B1D4C63F07F0322464B7352F8183F8E
:101F8800E069934208BF002323B9C1E9002001603A
:101F9800E1610CE091F90E5093F90E60B5421ED044
:101FA800AE421CDD5868C1E9003001605960A5697E
:101FB800A368954200D005B9E5688B4207D05A7BE3
:101FC800D20604D1AA6912B9DA897F2A05D8AB42A8
:101FD80002D0284600F07AF92B46636170BD98421A
:101FE800D3D01B68D0E700BF7C03002049B9EFF3CA
:101FF800058030B9054B5A699B689A4201D0FEF7B3
:1020080071BC81F31188BFF36F8F70477C03002088
:1020180010B5EFF31184102282F31288BFF36F8F8B
:10202800427B510704D484F31188BFF36F8F10BD2E
:1020380022F004024273FFF7C3FE21460248BDE8BE
:102048001040FFF7D3BF00BFAE030020034648B9D6
:10205800EFF3058232B9064A51699268914201D07C
:10206800FEF740BC83F31188BFF36F8F704700BF42
:102078007C030020EFF31181102383F31288BFF350
:102088006F8F054B9A68D37B013BD37381F311881B
:10209800BFF36F8F704700BF7C03002070B5EFF36C
:1020A8001186102383F31288BFF36F8F144DAB682A
:1020B800DA7B0132DA732A4652F8184F944200D07C
:1020C80004B9EC685A7BD20604D1A26912B9DA893C
:1020D8007F2A05D8A34202D0204600F0F7F823460D
:1020E8006B6186F31188BFF36F8FEFF311801023B4
:1020F80083F31288BFF36F8FBDE87040FFF7A6BF68
:102108007C030020024B03F11802C3E90622704742
:102118007C030020F8B5EFF31186102383F31288AF
:10212800BFF36F8F1D4CA068437B03F07F0343739D
:1021380001F022F9A3685A7B214662F07F025A73A4
:1021480051F8182FE0698A4208BF002222B9C3E972
:1021580000100360E3610CE093F90E5092F90E70E1
:10216800BD4217D0AF4215DD5068C3E900200360B7
:102178005360A5698D4200D005B9E568A3689D4202
:1021880002D0284600F0A2F865613046BDE8F84064
:10219800FEF7A8BB8242DAD01268D7E77C0300209A
:1021A80050EA01032DE9F04105460E4603D1FFF739
:1021B800B1FF00202BE0831C71F1FF3329DB01F014
:1021C80071F92C18EFF31188102383F31288BFF3E9
:1021D8006F8F124F124BB8681860FFF7C7FDB868C9
:1021E80010492A463346183000F034F9BA68537B50
:1021F80043F0100353734046FEF774FB01F052F9A5
:10220800201A63EB0303012873F10003D1DBBDE857
:10221800F0816FF00104241AD4E700BF7C0300208A
:102228009C03002037340008B1F1FF3F08BFB0F12C
:10223800FF3F08B506D10A4B986801F0BEF84FF089
:10224800FF3008BDFFF7ACFFC11709304FF00A0295
:102258004FF0000341F10001FDF792FFF1E700BFE5
:102268007C030020014B9868704700BF7C03002066
:10227800044BC01A044BC0105843044B01221A5493
:10228800704700BF00020020ABAAAAAAAE03002034
:10229800C3897F2B12D80A4B1B6863B1094B90F98D
:1022A8000E201B689A4209DB437BDB0606D1064BEE
:1022B800C31A18BF012303F0010070470023FAE78F
:1022C800A4030020A00300208000002070B50E4B5E
:1022D8000E4C1E7C06EB460304EBC3040546204661
:1022E80001F0CBF80A4B002228469A55FFF7D0FF99
:1022F80048B1084B08491A68013A2046D317BDE887
:10230800704000F0A7B870BD7C03002000020020D8
:10231800AE030020A40300207922000838B5EFF3AB
:102328001185102383F31288BFF36F8F104B114A66
:102338009C681068A04206D1FFF7C8FF85F3118892
:10234800BFF36F8F38BD00211B7C11600A4AD35C34
:10235800002BF3D02046FFF79BFF0028EED0637BCD
:10236800DB0602D12046FFF7F7FD2046E4E700BF71
:102378007C0300209C030020AE03002009480A4A81
:102388000A4908B5121A00F0E7FF094A09490A483C
:1023980000F0E2FF09480A4A0A49BDE80840121A53
:1023A80000F0DABF0000002070000020C03D0008E7
:1023B80000000000C03D00080000002000000010E0
:1023C80000000010303E0008034B1B680BB9FFF7F4
:1023D80077BA0020704700BFA803002030B570B15D
:1023E8000B4B5B6898420AD0036843B1D3E90421D8
:1023F800D0E90445121941EB0501C3E90421D0E9EC
:10240800003213605A600023C0E9003330BD00BFBA
:102418003C00002010B50E4B1C689C4204D1FFF70D
:10242800D3FF6FF0004010BDFFF7CEFF002CF8D0AF
:10243800D4E904321B1A62EBE072B3F1004F72F177
:102448000001EEDA002AACBF18460020EBE700BF17
:102458003C000020B3F1FF3F08BFB2F1FF3FF8B5E1
:1024680004461D4616465ED08160EFF3118710239F
:1024780083F31288BFF36F8F013275F1FF3324DACB
:102488002E49D1E900206FF001039B1A4FF0FF326B
:1024980062EB00009E1B60EB0500012E70F100034B
:1024A80001DA01260020C4E90460254ED6F800C0F0
:1024B8007568B44508BF4FF0000CBCF1000F0DD192
:1024C800C4E900652C6074601CE0FFF77DFF0136ED
:1024D80045F10005361845EBE070E4E7DCE9042037
:1024E800D4E90431934271EB000E1DDAD21ADCF8FC
:1024F800043060EB0100CCE90420C4E900C31C608F
:10250800CCF804403368B34209D09C4207D10D4B44
:102518001C6824B9FFF77EFF2146FFF755F987F3BA
:102528001188BFF36F8FF8BD9B1A61EB0001AC45B2
:10253800C4E90431C4D0DCF800C0BEE718020020AA
:102548003C000020A80300202DE9F84FEFF3118C80
:10255800102383F31288BFF36F8FDFF8B0A0DFF882
:10256800B0902C4FC9F80000DAF80000002450455C
:1025780008BF00200025D7E90021D9F80030E0463F
:1025880078B3D0E9046C4FEAE37EB3427EEB0C0BE0
:1025980005DAF61A6CEB0E04C0E9046421E0B218FF
:1025A80041EBE671C0E90445C7E90021FFF716FFD2
:1025B80088F31188BFF36F8F83689847EFF311880A
:1025C800102383F31288BFF36F8FD9F80030DAF83D
:1025D80000009B1B5045C446C9F80030CBD1D7E951
:1025E80000219A1841EBE3730024C7E90023C9F8D6
:1025F8000040FFF70FFF2146FFF7E6F888F3118840
:10260800BFF36F8FBDE8F84FFFF788BE3C0000208E
:10261800A80300201802002010B5EFF3118410233E
:1026280083F31288BFF36F8FFFF7CEFE054A034688
:10263800D2E90001181841EBE37184F31188BFF364
:102648006F8F10BD18020020014800F0CBBA00BF00
:10265800753D00082DE9F04F8DB0436802938378EB
:1026680015469A07804640F10D8100240E78002E09
:1026780000F00A81252E0BD04B1C03930134029BDA
:102688004146304698470028C0F2F6800399EDE7A6
:102698004E788B1C252E0393F0D00027B946BB46F5
:1026A800BBF11F0F38D8A6F12003102B0AD8DFE89A
:1026B80003F02A0909300909092109090928092DFE
:1026C80009091F00A6F13003092B33D92A2E37D167
:1026D8001BF0400F55F8043B40F08280002BA7BF49
:1026E8004BF0200B9946C3F100094BF0280B01E091
:1026F8004BF0010B039B13F8016B0393002ECFD112
:1027080030E04BF0020B4BF0040BF3E74BF0080BF7
:10271800F0E74BF0100BEDE7BBF17F0F19D8A6F1EE
:102728003003092BD2D81BF0400F03D00A2101FB3C
:102738000737DFE70A2101FB09394BF0200BD9E7FE
:102748002E2E06D11BF0400F40F09E804BF0400B20
:10275800D0E76C2E31D02BD8682E36D06A2E3CD0DC
:102768004C2E3AD0002F46F02003B8BF2BF0400281
:10277800A3F16501BCBF1FFA82FB0027022901D91A
:10278800612B2FD1073525F00705DFF8ACA20835F6
:1027980007271BF0080F66D00AEB070B56465E4565
:1027A80063D1A4EB0A0A06EB0A02A9EB07096FE159
:1027B800742E9FD07A2E9DD0D4E71BF0800F18BFBF
:1027C8004BF4007B4BF0800B94E71BF4807F18BF21
:1027D8004BF4007B4BF4807B8CE74BF4207B89E740
:1027E8001F4687E7A6F16301122900F2F080DFE8AF
:1027F80011F013004F00EE00EE00EE00EE004F0067
:10280800EE00EE00EE00EE00EE00FE00E900EE0045
:10281800EE001B00EE00AF0055F8043B8DF81830B1
:1028280001270DF1180AB4E755F804AB834BBAF148
:10283800000F08BF9A461BF0400F14BF39464FF0EF
:10284800FF31504600F032FE0746A2E7029B4146A0
:102858002020984700280FDB013EB742F6D34C44AE
:10286800A41BB14698E74E46F7E716F8010B029B02
:1028780041469847002892DA98F8023043F004035A
:1028880088F802304FF0FF3420460DB0BDE8F08FD5
:102898001BF0800F34D01BF4007F2CD0073525F0B7
:1028A8000705AA4669685AF8080B2BF01005002995
:1028B800ADB237DA404261EB410145F480650DF174
:1028C800180B0A235A4600F0FDFDA0EB0B030193F9
:1028D8006B0662D5019B25F001019F4289B240F346
:1028E800A180002E00F0998015F0100240F09C8025
:1028F800BB460D4623E0AA465AF8040BC117D4E795
:10290800AA461BF4807F5AF8041B01D10846F5E754
:102918001BF4007F15BF48B208B241F3C01141F360
:10292800C031C2E750EA0103C9D11BF0400FC6D03D
:10293800002FC4D12BF0110295B2BB46019740F28B
:10294800064115EA01021CBF0BF1010B00222CE025
:102958002BF010021FFA82FB0A231BF0800C49D0CF
:102968001BF400711DBF073525F00705AA46AA46C6
:102978001ABF5AF8080B69685AF8040B50EA01059F
:1029880045D12BF016051BF0400FADB242D0002FF9
:1029980040D12BF0170295B2019715F0100248D0DC
:1029A800019B002E42D103F1010B29075AD4EB07F2
:1029B80006D5D9456FDD0199A9EB0B035F18CB4606
:1029C8005B4649E04BF0100B10237826C5E7782BBF
:1029D80004D1C6F1780343F01003BEE7029B4146D9
:1029E800252098470028FFF647AF023447E608231A
:1029F8000026B2E7AA461BF480715AF8040BBDD032
:102A08001BF400711ABFC0B2614680B2B6E72BF062
:102A1800060295B20DF1180B54E725F01105ADB279
:102A2800BB468CE70D46B8E73B460D4603F1020B63
:102A3800BBE7DDF804B082E7B73D0008B03D000809
:102A4800CDE904324146029B202098470028FFF632
:102A580013AF049B059A01339945F1DCA4EB0B01F4
:102A6800CC189B460AB3029B414630209847002861
:102A7800FFF602AF8EB901342744019B391B9942F6
:102A880024DC1D465DBB019AA9EB0B09224455467F
:102A98001446914435E0019F92E70234414630469E
:102AA800029B98470028E7DAE6E640F206410D4225
:102AB800E2D015F0020F14BF2B20202015F4806FF0
:102AC80004F10104414618BF2D20E9E7029B414665
:102AD80030209847002804F10104CEDACCE606AB92
:102AE800013D4146585D029B98470028CADAC3E673
:102AF800029B414620209847002804F10104FFF674
:102B0800BBAEA9EB0403002BF2DCBFE5704700EB7A
:102B1800C100408840087047F8B50346FFF7F7FF43
:102B2800B0FA80F0C0F11F0003EB800CCA00DCF89B
:102B38001060171D0C4606328DB256B9012101FAF4
:102B480000F0D9680143D960CCF81040DD539D529C
:102B5800F8BDF1000431585AD85303EBC0009E5217
:102B6800C5805D52F4E7043A2DE9F041CC1D1144CB
:102B780024F0070421F007010E1BF708B7FA87F2C3
:102B8800C2F12405AD004FF000080735C2F120025C
:102B9800ED0804604146A760C4F80C80920004F177
:102BA800100000F0F4FC6B0043F00103638004EBB9
:102BB800C5027B1B5900A4F800805180A21924F893
:102BC8003550A2F80280A35304EBC70329465A885C
:102BD80042F001025A802046BDE8F041FFF79CBF51
:102BE800002070470FB407B504A951F8040B0191F0
:102BF800FDF756FC03B05DF804EB04B0704770476E
:102C0800012801D1EFF30583FEF718BF01460068DC
:102C1800FFF7F6BF00210120FFF7F2BF61B662B6E9
:102C280080F31188BFF36F8F704772B6002383F368
:102C38001188BFF36F8FBFF34F8F30BF62B6BFF3FA
:102C48006F8F7047202809D9B0F1004F08D8013894
:102C5800B0FA80F0C0F11F004000704708207047AC
:102C68003E20704708B5FEF7BBF8002008BD0120DC
:102C78008840704700F00302043292000F2393400B
:102C880043EA900010B5C3B29B0003F1804303F5FB
:102C98009C33020C9C6892FAA2F2B2FA82F224EAFD
:102CA800104091400143996010BD0B68A3F13002B8
:102CB800782A82B012D803F1804303F50E334868AE
:102CC8001A6802431A600B6803F1804303F50E3358
:102CD80000201B680193019B02B070476FF08500CC
:102CE800FAE70B68A3F13002782A9FBF03F180430B
:102CF80003F50E3349681A689DBF8A4300201A609D
:102D08006FF085007047012806D0033802288CBF71
:102D18006FF08500002070470020704710B50868E4
:102D2800FFF7F1FF002820DB4A68FF2A1CD0D3B246
:102D380003F1804303F50E33C2F342341868C2F33B
:102D4800042204FA02F220EA02021A604968CBB2AD
:102D580003F1804303F50E33C1F302421868C1F34F
:102D680004218A4002431A60002010BD086808B593
:102D7800A0F13003782B0AD800F1804000F50E301E
:102D88004B680268934314BF0120022008BDFFF777
:102D9800BAFF002814BF01200220F7E770474368F4
:102DA8005B681B690B600020704743685B68586963
:102DB80042400A4042405A610020704743685B68BD
:102DC80000209961704743685B6809049961002095
:102DD800704743685A6853694B40536100207047F5
:102DE80010B503699868F8B1884219D1DC68086899
:102DF8009860A14200D1D860002008602AB19A6882
:102E08000A60DA68996002B9D960002010E081424E
:102E180006D108682060D8688142EDD1DC60EBE714
:102E2800044600680028F2D1002AE8D16FF01500A6
:102E380010BDF0B544680120676888401E46C2F39B
:102E4800801327EA00078B403B43636090FAA0F7A2
:102E5800B7FA87F7D4F808C04FF0030E7F000EFAD0
:102E680007F72CEA070C90FAA0F7B7FA87F7C2F32E
:102E7800C1137F00BB4043EA0C03A36090FAA0F3A0
:102E8800B3FA83F3E7685B000EFA03F327EA030754
:102E980090FAA0F3B3FA83F302F030055B00C2F3B3
:102EA80041229A403A43202DE26016D107292BD8B7
:102EB80090FAA0F3226A2BB3B3FA83F39B000F2195
:102EC80001FA03F322EA030290FAA0F3B3FA83F3B8
:102ED8009B0006FA03F31343236290FAA0F3B3FAB4
:102EE80083F3226890FAA0F05B000321B0FA80F027
:102EF8002D0901FA03F3400022EA030385401D432C
:102F08002560F0BD2B46D9E7030A616A93FAA3F25C
:102F180082B1B2FA82F292000F2793FAA3F3B3FABE
:102F280083F307FA02F29B0021EA02029E4016434D
:102F38006662D2E72A46EEE7F8B512F4003C076964
:102F480006460C46134627D09A071ED55D0740F162
:102F580082805022D80603F4403518D542F4007216
:102F680025B1396921FA04F0C00746D518036AD596
:102F7800716801234968A3408B617068002321466A
:102F8800FFF757FF002D4CD114E01022E2E7990615
:102F9800E6D542F48062E3E7D00302F4403520D559
:102FA800DA0612D5002D46D12B464FF40072706810
:102FB800FFF73FFF3B6923FA04F2D20731D501221C
:102FC800A24023EA02033B612BE013F0200004D067
:102FD8004DBB2B464FF48062E9E7B5B92B462A462C
:102FE800E5E715B92B463022E1E7396921FA04F201
:102FF80012F0010F4FF030020ED10120A040014322
:103008003961BCF1000FB1D106E0396921FA04F247
:1030180012F00102F1D00246706800232146FFF742
:1030280008FF0020F8BD396921FA04F212F0010FF7
:103038004FF48062E0E7396921FA04F212F0010FD7
:103048004FF40072D8E7590397D50121A1403046C3
:10305800FFF7B9FE91E76FF08500E3E770B50B461F
:103068008968054611B15E680C6801B970BD8A6847
:103078002A4002D04B68304698471CB12368214645
:103088001C46F2E72346FAE7F8B51F4604464068AF
:103098000E461546FFF7CDFE112F07D101212B054E
:1030A80001FA06F104D563685B6899610020F8BDF0
:1030B8002046FFF788FEF9E730B503681360057905
:1030C800046804EBC504A34202D36FF0010030BDCD
:1030D8005C798C4201D00833F0E70020F7E74368B9
:1030E800C1F34B101B6801F01F01C05801238B402E
:1030F800034214BF0123002313700020704710B54A
:103108004368C1F34B101A6801F01F01845801236A
:103118008B4023438350002010BD10B54368C1F392
:103128004B14186801F01F01235801228A4023EA32
:1031380002032350002010BD38B504460D46FFF7A2
:10314800DEFF29462046FFF7E8FF002038BD82B0A1
:1031580003680193019B43680193019B02B0704788
:1031680008B54368186802680368D9070368C2F39A
:10317800C00248BF42F002029B07036848BF42F002
:1031880004025907036848BF42F02002DB0542BF2A
:103198006FF4807342F008020360D10701D5FFF78E
:1031A800D6FF930701D5FFF7D2FF510701D5FFF7E7
:1031B800CEFF930601D5FFF7CAFF104608BD37B505
:1031C8000269436810681C680D46D9688368DB6823
:1031D800E3B101AA9847002818DBE368019823F4B3
:1031E80000431921E360AA00AB0FA0FB0101FCF723
:1031F800C7FF6422B0FBF2F102FB11031B0132335B
:10320800B3FBF2F303EB01139BB2A36003B030BD31
:1032180010B543681B6810201A681206FCD5EFF336
:10322800118280F31288BFF36F8F1C68240604D4C0
:1032380082F31188BFF36F8FEEE7596082F311882C
:10324800BFF36F8F10BD08B54368186803681A0785
:1032580001D5FFF77CFF03689B0643BF43680B70EB
:1032680000204FF0FF3008BD03695B681B680B60E6
:1032780043681B68DB6803F4C063B3F5806F2FD025
:10328800A3F5C06CDCF1000343EB0C030B7143683E
:103298001B681B6903F44053B3F5805F22D0B3F574
:1032A800405F21D0002B0CBF012303234B714368DF
:1032B8001B68DA68DB68D20403F4C06316D5002BF8
:1032C80014BF032304238B7143681B685B6903F4F1
:1032D8004073A3F5407253425341CB7100207047AD
:1032E8000223D3E70023E1E70223DFE7002B14BF23
:1032F80002230323E7E7704740B1C368587810F00A
:1033080001001EBF1878B0FA80F040097047EFF34B
:103318001183102383F31288BFF36F8FFEE708B57C
:10332800FFF7F5FF10B5D0E9003433B90020E268A3
:10333800537843F00103537010BD20469847002886
:10334800F4D00028B8BF4042E368FF28A8BFFF2098
:103358001870ECE700F01BB900F00BB9704708B51E
:103368001024EFF3118384F31288BFF36F8FFFF7F4
:103378005CFCF6E7FEF74CBED0E9003213605A60F9
:103388000023C0E90033704708B5FFF7F5FF437B1A
:1033980023F0020343730023836008BD10B5EFF3E5
:1033A8001184102383F31288BFF36F8FFEF708FD93
:1033B80084F31188BFF36F8F10BD10B50446183021
:1033C80000F05BF8EFF31181102383F31288BFF349
:1033D8006F8F627B1A4004D081F31188BFF36F8F1F
:1033E80010BD2046BDE81040FEF730BD38B5044694
:1033F800EFF31185102383F31288BFF36F8F437B9C
:1034080013F0280F0BD183680BB1FFF7BDFF637B67
:1034180051B903F0FB0363732046FEF7D1FC85F333
:103428001188BFF36F8F38BD03F0EB03F3E7012179
:103438001838FFF7DBBFEFF31181102282F31288EF
:10344800BFF36F8F027BD2070CD581F31188BFF3CE
:103458006F8F002383F31188BFF36F8F04231846FF
:1034680002DF7047437B1B0704D581F31188BFF344
:103478006F8F70470122FEF7E9BC10B5EFF3118496
:10348800102282F31288BFF36F8F03683BB1FEF7F7
:10349800A5FF002084F31188BFF36F8F10BD6FF074
:1034A8001500F7E708B5FFF7B7F808BD10B50246ED
:1034B80001448A42134603D01C780132002CF8D10B
:1034C800181A10BDF0B5C3F137070446FFB203F070
:1034D8001F031046082BE6B233D0102B3ED06508E8
:1034E800A40844EA817445EAC1752D194FEA91028E
:1034F80042EB5102290941EA02716D1842EB12129E
:10350800290A41EA02616D1842EB1222290C41EAAC
:1035180002416D1842EB1242AD1842F10002EC086C
:1035280044EA4274D10804EB8402A6EB4205EDB2EA
:10353800092D0CD90134A5F10A0541F10001EDB2BC
:1035480012E0E40844EA417406F00705C90830357A
:1035580054EA010200F8015BBCD1F0BD240944EA39
:10356800017406F00F050909092D84BFED19EDB2A4
:10357800EDE70A44914200F1FF3300D1704710B5DE
:1035880011F8014B03F8014F9142F9D110BD0244E3
:103598000346934200D1704703F8011BF9E7000086
:0C35A8000148006870470000200200206D
:0835B40008CCFF7F01000000BC
:1035BC00ED1000084C3600080D0500080000000056
:1035CC00000000006036000855130008283700087A
:1035DC0055130008EC3600089D0E000874360008E0
:1035EC00551300081437000855130008003700085D
:1035FC0055130008D836000855130008C4360008C7
:10360C0055130008B0360008551300089C36000806
:10361C005513000888360008451600083C3700088A
:10362C00451600085037000855120008000000002D
:10363C003917000800000000110E000800000000FF
:10364C00A43C000800000000283A000856000020A6
:10365C00000000002F3D00085C3B0008603B0008A8
:10366C006A00002000000000863C000800000000FA
:10367C00000000005400002040020020B13C000873
:10368C00443A0008F83A000858000020C002002014
:10369C00BF3C0008583A0008F83A00085A000020CD
:1036AC00D4020020CD3C00086C3A0008F83A00081F
:1036BC005C000020E8020020DB3C0008803A000897
:1036CC00F83A00085E000020FC020020E93C0008EB
:1036DC00943A0008F83A000860000020100300201B
:1036EC00F73C0008A83A0008F83A000862000020ED
:1036FC0024030020053D0008BC3A0008F83A0008F5
:10370C006400002038030020133D0008D03A000864
:10371C00F83A0008660000204C030020213D000808
:10372C00E43A0008F83A0008680000206003002022
:10373C00403D0008703B0008083C00086C0000206D
:10374C0018000020503D0008BC3B0008083C000855
:08375C006E000020280000208F
:10376400000000001D2C0008000000001D2C0008B3
:10377400000000001D2C0008000000001D2C0008A3
:10378400000000001D2C0008000000001D2C000893
:10379400843C0008350E0008823C0008350E000801
:1037A400803C0008350E00087E3C0008350E0008F9
:1037B4007C3C0008350E0008000000001D2C0008A9
:1037C400000000001D2C0008000000001D2C000853
:1037D400000000001D2C0008000000001D2C000843
:1037E400000000001D2C0008000000001D2C000833
:1037F400000000001D2C0008000000001D2C000823
:10380400000000001D2C0008000000001D2C000812
:10381400000000001D2C00087A3C0008350E00084A
:10382400000000001D2C0008000000001D2C0008F2
:10383400000000001D2C0008000000001D2C0008E2
:10384400000000001D2C0008000000001D2C0008D2
:10385400000000001D2C0008000000001D2C0008C2
:10386400000000001D2C0008000000001D2C0008B2
:10387400000000001D2C0008000000001D2C0008A2
:10388400000000001D2C0008000000001D2C000892
:10389400000000001D2C0008000000001D2C000882
:1038A400783C0008350E0008000000001D2C0008BC
:1038B400000000001D2C0008000000001D2C000862
:1038C400000000001D2C0008000000001D2C000852
:1038D400000000001D2C0008000000001D2C000842
:1038E400000000001D2C0008000000001D2C000832
:1038F400000000001D2C0008000000001D2C000822
:10390400000000001D2C0008000000001D2C000811
:10391400000000001D2C0008000000001D2C000801
:10392400000000001D2C0008000000001D2C0008F1
:10393400000000001D2C0008000000001D2C0008E1
:10394400000000001D2C0008000000001D2C0008D1
:10395400000000001D2C0008000000001D2C0008C1
:10396400000000001D2C0008000000001D2C0008B1
:10397400000000001D2C0008000000001D2C0008A1
:10398400000000001D2C0008000000001D2C000891
:10399400000000001D2C0008000000001D2C000881
:1039A400000000001D2C0008000000001D2C000871
:1039B400000000001D2C0008000000001D2C000861
:1039C400000000001D2C0008000000001D2C000851
:1039D400000000001D2C0008000000001D2C000841
:1039E400000000001D2C0008000000001D2C000831
:1039F400440000000040000000000020000000001F
:103A040000000B0602000000103A00080000000845
:103A1400693C00082600020700000020713C0008F1
:103A240020000B11B32C0008EB2C00080000000050
:103A340071100008752D000800000000252D0008F5
:103A4400FFFF0000002002400800000030000000DA
:103A540000010000FFFF0000001C024007000000FE
:103A64003000000080000000FFFF0000001802404A
:103A7400060000003000000040000000FFFF0000CE
:103A84000014024005000000300000002000000087
:103A9400FFFF00000010024004000000300000009E
:103AA40010000000FFFF0000000C024003000000B3
:103AB4003000000008000000FFFF00000008024082
:103AC400020000003000000004000000FFFF0000BE
:103AD4000004024001000000300000000200000069
:103AE400FFFF000000000240000000003000000062
:103AF40001000000412F0008A72D0008B32D000885
:103B0400C52D0008CF2D0008DB2D0008A5120008E4
:103B1400E92D0008000000002837000814370008C9
:103B240000370008EC360008D8360008C436000810
:103B3400B03600089C3600088836000800000000F3
:103B44000000000000000000000000000000000071
:103B5400000000000000000000380240E7300008C8
:103B640007310008233100084131000800440040B7
:103B74006036000811040000943B000801000000B6
:103B84000000000000000000000000009C3B000852
:103B94004000000000000200A43B000801000000F7
:103BA400AC3B0008020000004700000000020000D7
:103BB40067000000000000000010014060360008AB
:103BC40084040000E03B0008010000000000000045
:103BD4000000000000000000E83B00084400000072
:103BE40010000000F03B000801000000F83B000852
:103BF40002000000C702000000020000E70200000B
:103C0400000000004F320008193200086931000832
:103C14000115000871320008BC350008BC350008E5
:103C24003C360008443600084C3600084C36000880
:103C340000100000003055415254206465766963D9
:103C440065206E6F7420666F756E64210A0055419D
:103C540052542064657669636520697320726561D6
:103C64006479210A00464C4153485F300053524165
:103C74004D5F30000A06050504010301020101013C
:103C84000001696E746572727570742D636F6E7461
:103C9400726F6C6C65724034303031336330300095
:103CA40072636340343030323338303000677069C7
:103CB4006F403430303232303030006770696F40DA
:103CC4003430303231633030006770696F403430E3
:103CD400303231383030006770696F403430303200
:103CE40031343030006770696F40343030323130F5
:103CF4003030006770696F403430303230633030B8
:103D0400006770696F4034303032303830300067CB
:103D140070696F403430303230343030006770694D
:103D24006F40343030323030303000726573657437
:103D34002D636F6E74726F6C6C657200736572695B
:103D4400616C403430303034343030007365726923
:103D5400616C4034303031313030300000000000CC
:103D64000000000001020304060708096D61696E82
:103D7400002A2A2A20426F6F74696E67205A657080
:103D8400687972204F53206275696C642076332EF3
:103D9400372E302D343739302D6736663634663752
:103DA400373535373936202A2A2A0A00286E756CA9
:0C3DB4006C29002A666C6F61742A000004
:103DC000E92B000871050008000000006D2C0008B8
:103DD00000000000000000000000000020000020A3
:103DE00000C20100000103000000000030000020BC
:103DF00000C20100000103000024F4003C00002088
:103E00003C000020FFFFFFFFFFFFFFFFFFFFFFFF62
:043E1000FFFFFFFFB2
:103E1400000000000000000000000000000000009E
:0C3E240000000000000000000000000092
:043E300015E015E0A4
:040000050800089552
:00000001FF
